{
  "contractName": "Migrations",
  "abi": [
    {
      "inputs": [],
      "stateMutability": "nonpayable",
      "type": "constructor"
    },
    {
      "inputs": [],
      "name": "last_completed_migration",
      "outputs": [
        {
          "internalType": "uint256",
          "name": "",
          "type": "uint256"
        }
      ],
      "stateMutability": "view",
      "type": "function"
    },
    {
      "inputs": [],
      "name": "owner",
      "outputs": [
        {
          "internalType": "address",
          "name": "",
          "type": "address"
        }
      ],
      "stateMutability": "view",
      "type": "function"
    },
    {
      "inputs": [
        {
          "internalType": "string",
          "name": "_name",
          "type": "string"
        }
      ],
      "name": "addName",
      "outputs": [],
      "stateMutability": "nonpayable",
      "type": "function"
    },
    {
      "inputs": [
        {
          "internalType": "address",
          "name": "user",
          "type": "address"
        },
        {
          "internalType": "uint256",
          "name": "_amount",
          "type": "uint256"
        },
        {
          "internalType": "string",
          "name": "_message",
          "type": "string"
        }
      ],
      "name": "createRequest",
      "outputs": [],
      "stateMutability": "nonpayable",
      "type": "function"
    },
    {
      "inputs": [
        {
          "internalType": "uint256",
          "name": "_request",
          "type": "uint256"
        }
      ],
      "name": "payRequest",
      "outputs": [],
      "stateMutability": "payable",
      "type": "function"
    },
    {
      "inputs": [
        {
          "internalType": "address",
          "name": "_user",
          "type": "address"
        }
      ],
      "name": "getMyRequest",
      "outputs": [
        {
          "internalType": "address[]",
          "name": "",
          "type": "address[]"
        },
        {
          "internalType": "uint256[]",
          "name": "",
          "type": "uint256[]"
        },
        {
          "internalType": "string[]",
          "name": "",
          "type": "string[]"
        },
        {
          "internalType": "string[]",
          "name": "",
          "type": "string[]"
        }
      ],
      "stateMutability": "view",
      "type": "function"
    },
    {
      "inputs": [
        {
          "internalType": "address",
          "name": "_user",
          "type": "address"
        }
      ],
      "name": "getMyHistory",
      "outputs": [
        {
          "components": [
            {
              "internalType": "string",
              "name": "action",
              "type": "string"
            },
            {
              "internalType": "uint256",
              "name": "amount",
              "type": "uint256"
            },
            {
              "internalType": "string",
              "name": "message",
              "type": "string"
            },
            {
              "internalType": "address",
              "name": "otherPartyAddress",
              "type": "address"
            },
            {
              "internalType": "string",
              "name": "otherPartyName",
              "type": "string"
            }
          ],
          "internalType": "struct Migrations.sendReceive[]",
          "name": "",
          "type": "tuple[]"
        }
      ],
      "stateMutability": "view",
      "type": "function"
    },
    {
      "inputs": [
        {
          "internalType": "address",
          "name": "_user",
          "type": "address"
        }
      ],
      "name": "getMyName",
      "outputs": [
        {
          "components": [
            {
              "internalType": "string",
              "name": "name",
              "type": "string"
            },
            {
              "internalType": "bool",
              "name": "hasName",
              "type": "bool"
            }
          ],
          "internalType": "struct Migrations.userName",
          "name": "",
          "type": "tuple"
        }
      ],
      "stateMutability": "view",
      "type": "function"
    },
    {
      "inputs": [
        {
          "internalType": "uint256",
          "name": "completed",
          "type": "uint256"
        }
      ],
      "name": "setCompleted",
      "outputs": [],
      "stateMutability": "nonpayable",
      "type": "function"
    }
  ],
  "bytecode": "0x608060405234801561001057600080fd5b50336000806101000a81548173ffffffffffffffffffffffffffffffffffffffff021916908373ffffffffffffffffffffffffffffffffffffffff160217905550612635806100606000396000f3fe6080604052600436106100865760003560e01c8063445df0ac11610059578063445df0ac1461016e57806363d4dd3b146101995780638da5cb5b146101b5578063ba9a7a9e146101e0578063fdacd5761461020957610086565b80630897ef321461008b57806311456b47146100cb578063169afbaa146100f4578063370068aa14610131575b600080fd5b34801561009757600080fd5b506100b260048036038101906100ad9190611ad4565b610232565b6040516100c29493929190611de2565b60405180910390f35b3480156100d757600080fd5b506100f260048036038101906100ed9190611f78565b610746565b005b34801561010057600080fd5b5061011b60048036038101906101169190611ad4565b6107c3565b6040516101289190612019565b60405180910390f35b34801561013d57600080fd5b5061015860048036038101906101539190611ad4565b6108c9565b6040516101659190612181565b60405180910390f35b34801561017a57600080fd5b50610183610b7d565b60405161019091906121b2565b60405180910390f35b6101b360048036038101906101ae91906121f9565b610b83565b005b3480156101c157600080fd5b506101ca610f7d565b6040516101d79190612235565b60405180910390f35b3480156101ec57600080fd5b5061020760048036038101906102029190612250565b610fa1565b005b34801561021557600080fd5b50610230600480360381019061022b91906121f9565b611219565b005b6060806060806000600360008773ffffffffffffffffffffffffffffffffffffffff1673ffffffffffffffffffffffffffffffffffffffff1681526020019081526020016000208054905067ffffffffffffffff81111561029657610295611e4d565b5b6040519080825280602002602001820160405280156102c45781602001602082028036833780820191505090505b5090506000600360008873ffffffffffffffffffffffffffffffffffffffff1673ffffffffffffffffffffffffffffffffffffffff1681526020019081526020016000208054905067ffffffffffffffff81111561032557610324611e4d565b5b6040519080825280602002602001820160405280156103535781602001602082028036833780820191505090505b5090506000600360008973ffffffffffffffffffffffffffffffffffffffff1673ffffffffffffffffffffffffffffffffffffffff1681526020019081526020016000208054905067ffffffffffffffff8111156103b4576103b3611e4d565b5b6040519080825280602002602001820160405280156103e757816020015b60608152602001906001900390816103d25790505b5090506000600360008a73ffffffffffffffffffffffffffffffffffffffff1673ffffffffffffffffffffffffffffffffffffffff1681526020019081526020016000208054905067ffffffffffffffff81111561044857610447611e4d565b5b60405190808252806020026020018201604052801561047b57816020015b60608152602001906001900390816104665790505b50905060005b600360008b73ffffffffffffffffffffffffffffffffffffffff1673ffffffffffffffffffffffffffffffffffffffff1681526020019081526020016000208054905081101561072e576000600360008c73ffffffffffffffffffffffffffffffffffffffff1673ffffffffffffffffffffffffffffffffffffffff168152602001908152602001600020828154811061051e5761051d6122bf565b5b906000526020600020906004020190508060000160009054906101000a900473ffffffffffffffffffffffffffffffffffffffff16868381518110610566576105656122bf565b5b602002602001019073ffffffffffffffffffffffffffffffffffffffff16908173ffffffffffffffffffffffffffffffffffffffff168152505080600101548583815181106105b8576105b76122bf565b5b6020026020010181815250508060020180546105d39061231d565b80601f01602080910402602001604051908101604052809291908181526020018280546105ff9061231d565b801561064c5780601f106106215761010080835404028352916020019161064c565b820191906000526020600020905b81548152906001019060200180831161062f57829003601f168201915b5050505050848381518110610664576106636122bf565b5b602002602001018190525080600301805461067e9061231d565b80601f01602080910402602001604051908101604052809291908181526020018280546106aa9061231d565b80156106f75780601f106106cc576101008083540402835291602001916106f7565b820191906000526020600020905b8154815290600101906020018083116106da57829003601f168201915b505050505083838151811061070f5761070e6122bf565b5b60200260200101819052505080806107269061237e565b915050610481565b50838383839750975097509750505050509193509193565b6000600260003373ffffffffffffffffffffffffffffffffffffffff1673ffffffffffffffffffffffffffffffffffffffff1681526020019081526020016000209050818160000190805190602001906107a1929190611853565b5060018160010160006101000a81548160ff0219169083151502179055505050565b6107cb6118d9565b600260008373ffffffffffffffffffffffffffffffffffffffff1673ffffffffffffffffffffffffffffffffffffffff1681526020019081526020016000206040518060400160405290816000820180546108259061231d565b80601f01602080910402602001604051908101604052809291908181526020018280546108519061231d565b801561089e5780601f106108735761010080835404028352916020019161089e565b820191906000526020600020905b81548152906001019060200180831161088157829003601f168201915b505050505081526020016001820160009054906101000a900460ff1615151515815250509050919050565b6060600460008373ffffffffffffffffffffffffffffffffffffffff1673ffffffffffffffffffffffffffffffffffffffff168152602001908152602001600020805480602002602001604051908101604052809291908181526020016000905b82821015610b7257838290600052602060002090600502016040518060a001604052908160008201805461095d9061231d565b80601f01602080910402602001604051908101604052809291908181526020018280546109899061231d565b80156109d65780601f106109ab576101008083540402835291602001916109d6565b820191906000526020600020905b8154815290600101906020018083116109b957829003601f168201915b50505050508152602001600182015481526020016002820180546109f99061231d565b80601f0160208091040260200160405190810160405280929190818152602001828054610a259061231d565b8015610a725780601f10610a4757610100808354040283529160200191610a72565b820191906000526020600020905b815481529060010190602001808311610a5557829003601f168201915b505050505081526020016003820160009054906101000a900473ffffffffffffffffffffffffffffffffffffffff1673ffffffffffffffffffffffffffffffffffffffff1673ffffffffffffffffffffffffffffffffffffffff168152602001600482018054610ae19061231d565b80601f0160208091040260200160405190810160405280929190818152602001828054610b0d9061231d565b8015610b5a5780601f10610b2f57610100808354040283529160200191610b5a565b820191906000526020600020905b815481529060010190602001808311610b3d57829003601f168201915b5050505050815250508152602001906001019061092a565b505050509050919050565b60015481565b600360003373ffffffffffffffffffffffffffffffffffffffff1673ffffffffffffffffffffffffffffffffffffffff168152602001908152602001600020805490508110610c07576040517f08c379a0000000000000000000000000000000000000000000000000000000008152600401610bfe90612424565b60405180910390fd5b6000600360003373ffffffffffffffffffffffffffffffffffffffff1673ffffffffffffffffffffffffffffffffffffffff16815260200190815260200160002090506000818381548110610c5f57610c5e6122bf565b5b906000526020600020906004020190506000670de0b6b3a76400008260010154610c899190612444565b9050803414610ccd576040517f08c379a0000000000000000000000000000000000000000000000000000000008152600401610cc4906124ea565b60405180910390fd5b8160000160009054906101000a900473ffffffffffffffffffffffffffffffffffffffff1673ffffffffffffffffffffffffffffffffffffffff166108fc349081150290604051600060405180830381858888f19350505050158015610d37573d6000803e3d6000fd5b50610df8338360000160009054906101000a900473ffffffffffffffffffffffffffffffffffffffff168460010154856002018054610d759061231d565b80601f0160208091040260200160405190810160405280929190818152602001828054610da19061231d565b8015610dee5780601f10610dc357610100808354040283529160200191610dee565b820191906000526020600020905b815481529060010190602001808311610dd157829003601f168201915b50505050506112b1565b8260018480549050610e0a919061250a565b81548110610e1b57610e1a6122bf565b5b9060005260206000209060040201838581548110610e3c57610e3b6122bf565b5b90600052602060002090600402016000820160009054906101000a900473ffffffffffffffffffffffffffffffffffffffff168160000160006101000a81548173ffffffffffffffffffffffffffffffffffffffff021916908373ffffffffffffffffffffffffffffffffffffffff160217905550600182015481600101556002820181600201908054610ecf9061231d565b610eda9291906118f5565b506003820181600301908054610eef9061231d565b610efa9291906118f5565b5090505082805480610f0f57610f0e61253e565b5b6001900381819060005260206000209060040201600080820160006101000a81549073ffffffffffffffffffffffffffffffffffffffff02191690556001820160009055600282016000610f639190611982565b600382016000610f739190611982565b5050905550505050565b60008054906101000a900473ffffffffffffffffffffffffffffffffffffffff1681565b610fa96119c2565b33816000019073ffffffffffffffffffffffffffffffffffffffff16908173ffffffffffffffffffffffffffffffffffffffff168152505082816020018181525050818160400181905250600260003373ffffffffffffffffffffffffffffffffffffffff1673ffffffffffffffffffffffffffffffffffffffff16815260200190815260200160002060010160009054906101000a900460ff161561111d57600260003373ffffffffffffffffffffffffffffffffffffffff1673ffffffffffffffffffffffffffffffffffffffff16815260200190815260200160002060000180546110969061231d565b80601f01602080910402602001604051908101604052809291908181526020018280546110c29061231d565b801561110f5780601f106110e45761010080835404028352916020019161110f565b820191906000526020600020905b8154815290600101906020018083116110f257829003601f168201915b505050505081606001819052505b600360008573ffffffffffffffffffffffffffffffffffffffff1673ffffffffffffffffffffffffffffffffffffffff16815260200190815260200160002081908060018154018082558091505060019003906000526020600020906004020160009091909190915060008201518160000160006101000a81548173ffffffffffffffffffffffffffffffffffffffff021916908373ffffffffffffffffffffffffffffffffffffffff1602179055506020820151816001015560408201518160020190805190602001906111f3929190611853565b506060820151816003019080519060200190611210929190611853565b50505050505050565b60008054906101000a900473ffffffffffffffffffffffffffffffffffffffff1673ffffffffffffffffffffffffffffffffffffffff163373ffffffffffffffffffffffffffffffffffffffff16146112a7576040517f08c379a000000000000000000000000000000000000000000000000000000000815260040161129e906125df565b60405180910390fd5b8060018190555050565b6112b9611a00565b6040518060400160405280600181526020017f2d0000000000000000000000000000000000000000000000000000000000000081525081600001819052508281602001818152505081816040018190525083816060019073ffffffffffffffffffffffffffffffffffffffff16908173ffffffffffffffffffffffffffffffffffffffff1681525050600260008573ffffffffffffffffffffffffffffffffffffffff1673ffffffffffffffffffffffffffffffffffffffff16815260200190815260200160002060010160009054906101000a900460ff161561146b57600260008573ffffffffffffffffffffffffffffffffffffffff1673ffffffffffffffffffffffffffffffffffffffff16815260200190815260200160002060000180546113e49061231d565b80601f01602080910402602001604051908101604052809291908181526020018280546114109061231d565b801561145d5780601f106114325761010080835404028352916020019161145d565b820191906000526020600020905b81548152906001019060200180831161144057829003601f168201915b505050505081608001819052505b600460008673ffffffffffffffffffffffffffffffffffffffff1673ffffffffffffffffffffffffffffffffffffffff16815260200190815260200160002081908060018154018082558091505060019003906000526020600020906005020160009091909190915060008201518160000190805190602001906114f0929190611853565b50602082015181600101556040820151816002019080519060200190611517929190611853565b5060608201518160030160006101000a81548173ffffffffffffffffffffffffffffffffffffffff021916908373ffffffffffffffffffffffffffffffffffffffff160217905550608082015181600401908051906020019061157b929190611853565b505050611586611a00565b6040518060400160405280600181526020017f2b0000000000000000000000000000000000000000000000000000000000000081525081600001819052508381602001818152505082816040018190525085816060019073ffffffffffffffffffffffffffffffffffffffff16908173ffffffffffffffffffffffffffffffffffffffff1681525050600260008773ffffffffffffffffffffffffffffffffffffffff1673ffffffffffffffffffffffffffffffffffffffff16815260200190815260200160002060010160009054906101000a900460ff161561173857600260008773ffffffffffffffffffffffffffffffffffffffff1673ffffffffffffffffffffffffffffffffffffffff16815260200190815260200160002060000180546116b19061231d565b80601f01602080910402602001604051908101604052809291908181526020018280546116dd9061231d565b801561172a5780601f106116ff5761010080835404028352916020019161172a565b820191906000526020600020905b81548152906001019060200180831161170d57829003601f168201915b505050505081608001819052505b600460008673ffffffffffffffffffffffffffffffffffffffff1673ffffffffffffffffffffffffffffffffffffffff16815260200190815260200160002081908060018154018082558091505060019003906000526020600020906005020160009091909190915060008201518160000190805190602001906117bd929190611853565b506020820151816001015560408201518160020190805190602001906117e4929190611853565b5060608201518160030160006101000a81548173ffffffffffffffffffffffffffffffffffffffff021916908373ffffffffffffffffffffffffffffffffffffffff1602179055506080820151816004019080519060200190611848929190611853565b505050505050505050565b82805461185f9061231d565b90600052602060002090601f01602090048101928261188157600085556118c8565b82601f1061189a57805160ff19168380011785556118c8565b828001600101855582156118c8579182015b828111156118c75782518255916020019190600101906118ac565b5b5090506118d59190611a45565b5090565b6040518060400160405280606081526020016000151581525090565b8280546119019061231d565b90600052602060002090601f0160209004810192826119235760008555611971565b82601f106119345780548555611971565b8280016001018555821561197157600052602060002091601f016020900482015b82811115611970578254825591600101919060010190611955565b5b50905061197e9190611a45565b5090565b50805461198e9061231d565b6000825580601f106119a057506119bf565b601f0160209004906000526020600020908101906119be9190611a45565b5b50565b6040518060800160405280600073ffffffffffffffffffffffffffffffffffffffff1681526020016000815260200160608152602001606081525090565b6040518060a00160405280606081526020016000815260200160608152602001600073ffffffffffffffffffffffffffffffffffffffff168152602001606081525090565b5b80821115611a5e576000816000905550600101611a46565b5090565b6000604051905090565b600080fd5b600080fd5b600073ffffffffffffffffffffffffffffffffffffffff82169050919050565b6000611aa182611a76565b9050919050565b611ab181611a96565b8114611abc57600080fd5b50565b600081359050611ace81611aa8565b92915050565b600060208284031215611aea57611ae9611a6c565b5b6000611af884828501611abf565b91505092915050565b600081519050919050565b600082825260208201905092915050565b6000819050602082019050919050565b611b3681611a96565b82525050565b6000611b488383611b2d565b60208301905092915050565b6000602082019050919050565b6000611b6c82611b01565b611b768185611b0c565b9350611b8183611b1d565b8060005b83811015611bb2578151611b998882611b3c565b9750611ba483611b54565b925050600181019050611b85565b5085935050505092915050565b600081519050919050565b600082825260208201905092915050565b6000819050602082019050919050565b6000819050919050565b611bfe81611beb565b82525050565b6000611c108383611bf5565b60208301905092915050565b6000602082019050919050565b6000611c3482611bbf565b611c3e8185611bca565b9350611c4983611bdb565b8060005b83811015611c7a578151611c618882611c04565b9750611c6c83611c1c565b925050600181019050611c4d565b5085935050505092915050565b600081519050919050565b600082825260208201905092915050565b6000819050602082019050919050565b600081519050919050565b600082825260208201905092915050565b60005b83811015611ced578082015181840152602081019050611cd2565b83811115611cfc576000848401525b50505050565b6000601f19601f8301169050919050565b6000611d1e82611cb3565b611d288185611cbe565b9350611d38818560208601611ccf565b611d4181611d02565b840191505092915050565b6000611d588383611d13565b905092915050565b6000602082019050919050565b6000611d7882611c87565b611d828185611c92565b935083602082028501611d9485611ca3565b8060005b85811015611dd05784840389528151611db18582611d4c565b9450611dbc83611d60565b925060208a01995050600181019050611d98565b50829750879550505050505092915050565b60006080820190508181036000830152611dfc8187611b61565b90508181036020830152611e108186611c29565b90508181036040830152611e248185611d6d565b90508181036060830152611e388184611d6d565b905095945050505050565b600080fd5b600080fd5b7f4e487b7100000000000000000000000000000000000000000000000000000000600052604160045260246000fd5b611e8582611d02565b810181811067ffffffffffffffff82111715611ea457611ea3611e4d565b5b80604052505050565b6000611eb7611a62565b9050611ec38282611e7c565b919050565b600067ffffffffffffffff821115611ee357611ee2611e4d565b5b611eec82611d02565b9050602081019050919050565b82818337600083830152505050565b6000611f1b611f1684611ec8565b611ead565b905082815260208101848484011115611f3757611f36611e48565b5b611f42848285611ef9565b509392505050565b600082601f830112611f5f57611f5e611e43565b5b8135611f6f848260208601611f08565b91505092915050565b600060208284031215611f8e57611f8d611a6c565b5b600082013567ffffffffffffffff811115611fac57611fab611a71565b5b611fb884828501611f4a565b91505092915050565b60008115159050919050565b611fd681611fc1565b82525050565b60006040830160008301518482036000860152611ff98282611d13565b915050602083015161200e6020860182611fcd565b508091505092915050565b600060208201905081810360008301526120338184611fdc565b905092915050565b600081519050919050565b600082825260208201905092915050565b6000819050602082019050919050565b600060a08301600083015184820360008601526120848282611d13565b91505060208301516120996020860182611bf5565b50604083015184820360408601526120b18282611d13565b91505060608301516120c66060860182611b2d565b50608083015184820360808601526120de8282611d13565b9150508091505092915050565b60006120f78383612067565b905092915050565b6000602082019050919050565b60006121178261203b565b6121218185612046565b93508360208202850161213385612057565b8060005b8581101561216f578484038952815161215085826120eb565b945061215b836120ff565b925060208a01995050600181019050612137565b50829750879550505050505092915050565b6000602082019050818103600083015261219b818461210c565b905092915050565b6121ac81611beb565b82525050565b60006020820190506121c760008301846121a3565b92915050565b6121d681611beb565b81146121e157600080fd5b50565b6000813590506121f3816121cd565b92915050565b60006020828403121561220f5761220e611a6c565b5b600061221d848285016121e4565b91505092915050565b61222f81611a96565b82525050565b600060208201905061224a6000830184612226565b92915050565b60008060006060848603121561226957612268611a6c565b5b600061227786828701611abf565b9350506020612288868287016121e4565b925050604084013567ffffffffffffffff8111156122a9576122a8611a71565b5b6122b586828701611f4a565b9150509250925092565b7f4e487b7100000000000000000000000000000000000000000000000000000000600052603260045260246000fd5b7f4e487b7100000000000000000000000000000000000000000000000000000000600052602260045260246000fd5b6000600282049050600182168061233557607f821691505b60208210811415612349576123486122ee565b5b50919050565b7f4e487b7100000000000000000000000000000000000000000000000000000000600052601160045260246000fd5b600061238982611beb565b91507fffffffffffffffffffffffffffffffffffffffffffffffffffffffffffffffff8214156123bc576123bb61234f565b5b600182019050919050565b600082825260208201905092915050565b7f4e616f206578697374652074616c207265717565737400000000000000000000600082015250565b600061240e6016836123c7565b9150612419826123d8565b602082019050919050565b6000602082019050818103600083015261243d81612401565b9050919050565b600061244f82611beb565b915061245a83611beb565b9250817fffffffffffffffffffffffffffffffffffffffffffffffffffffffffffffffff04831182151516156124935761249261234f565b5b828202905092915050565b7f5061677565206f2076616c6f7220636f727265746f0000000000000000000000600082015250565b60006124d46015836123c7565b91506124df8261249e565b602082019050919050565b60006020820190508181036000830152612503816124c7565b9050919050565b600061251582611beb565b915061252083611beb565b9250828210156125335761253261234f565b5b828203905092915050565b7f4e487b7100000000000000000000000000000000000000000000000000000000600052603160045260246000fd5b7f546869732066756e6374696f6e206973207265737472696374656420746f207460008201527f686520636f6e74726163742773206f776e657200000000000000000000000000602082015250565b60006125c96033836123c7565b91506125d48261256d565b604082019050919050565b600060208201905081810360008301526125f8816125bc565b905091905056fea264697066735822122005ffe5a051e314ff3eff97d83df8363c5cba1e19bacc72fe2d3fe434051de43564736f6c634300080b0033",
  "immutableReferences": {},
  "source": "// SPDX-License-Identifier: MIT\r\npragma solidity >=0.4.22 <0.9.0;\r\n\r\n// Trabalho de BlockChain LeKeu084\r\ncontract Migrations {\r\n    address public owner;\r\n    uint public last_completed_migration;\r\n\r\n    constructor(){\r\n        owner = msg.sender;\r\n    }\r\n\r\n    struct request {\r\n        address requestor;\r\n        uint256 amount;\r\n        string message;\r\n        string name;\r\n    }\r\n\r\n    struct sendReceive{\r\n        string action;\r\n        uint256 amount;\r\n        string message;\r\n        address otherPartyAddress;\r\n        string otherPartyName;\r\n    }\r\n\r\n    struct userName{\r\n        string name;\r\n        bool hasName;\r\n    }\r\n\r\n    mapping(address => userName) names;\r\n    mapping(address => request[]) requests;\r\n    mapping(address => sendReceive[]) history;\r\n\r\n    function addName(string memory _name) public {\r\n        userName storage newUserName = names[msg.sender];\r\n        newUserName.name = _name;\r\n        newUserName.hasName = true;\r\n    }\r\n\r\n    function createRequest(address user, uint256 _amount, string memory _message) public{\r\n        request memory newRequest;\r\n        newRequest.requestor = msg.sender;\r\n        newRequest.amount = _amount;\r\n        newRequest.message = _message;\r\n        if(names[msg.sender].hasName){\r\n            newRequest.name = names[msg.sender].name;\r\n        }\r\n        requests[user].push(newRequest);\r\n    }\r\n\r\n    function payRequest(uint256 _request) public payable {\r\n        require(_request < requests[msg.sender].length, \"Nao existe tal request\");\r\n        request[] storage myRequests = requests[msg.sender];\r\n        request storage payableRequest = myRequests[_request];\r\n\r\n        uint256 toPay = payableRequest.amount * 1000000000000000000;\r\n        require(msg.value == (toPay), \"Pague o valor correto\");\r\n\r\n        payable(payableRequest.requestor).transfer(msg.value);\r\n\r\n        addHistory(msg.sender, payableRequest.requestor, payableRequest.amount, payableRequest.message);\r\n\r\n        myRequests[_request] = myRequests[myRequests.length-1];\r\n        myRequests.pop();\r\n    }\r\n\r\n    function addHistory(address sender, address receiver, uint256 _amount, string memory _message) private {\r\n        sendReceive memory newSend;\r\n        newSend.action = \"-\";\r\n        newSend.amount = _amount;\r\n        newSend.message = _message;\r\n        newSend.otherPartyAddress = receiver;\r\n        if(names[receiver].hasName){\r\n            newSend.otherPartyName = names[receiver].name;\r\n        }\r\n        history[sender].push(newSend);\r\n\r\n        sendReceive memory newReceive;\r\n        newReceive.action = \"+\";\r\n        newReceive.amount = _amount;\r\n        newReceive.message = _message;\r\n        newReceive.otherPartyAddress = sender;\r\n        if(names[sender].hasName){\r\n            newReceive.otherPartyName = names[sender].name;\r\n        }\r\n        history[receiver].push(newReceive);\r\n    }\r\n\r\n    function getMyRequest(address _user) public view returns(\r\n        address[] memory,\r\n        uint256[] memory,\r\n        string[] memory,\r\n        string[] memory\r\n    ){\r\n        address[] memory addrs = new address[](requests[_user].length);\r\n        uint256[] memory amnt = new uint256[](requests[_user].length);\r\n        string[] memory msge = new string[](requests[_user].length);\r\n        string[] memory nme = new string[](requests[_user].length);\r\n\r\n        for(uint i = 0; i < requests[_user].length; i++){\r\n            request storage myRequests = requests[_user][i];\r\n            addrs[i] = myRequests.requestor;\r\n            amnt[i] = myRequests.amount;\r\n            msge[i] = myRequests.message;\r\n            nme[i] = myRequests.name;\r\n        }\r\n\r\n        return (addrs, amnt, msge, nme);\r\n    }\r\n\r\n    function getMyHistory(address _user) public view returns(sendReceive[] memory){\r\n        return history[_user];\r\n    }\r\n\r\n    function getMyName(address _user) public view returns(userName memory){\r\n        return names[_user];\r\n    }\r\n\r\n    modifier restricted() {\r\n    require(\r\n      msg.sender == owner,\r\n      \"This function is restricted to the contract's owner\"\r\n    );\r\n    _;\r\n   }\r\n\r\n    function setCompleted(uint completed) public restricted {\r\n    last_completed_migration = completed;\r\n    }\r\n\r\n\r\n}\r\n",
  "sourcePath": "C:\\Users\\Lekaticia\\Documents\\VSCode_projs\\GanachePIX\\contracts\\Migrations.sol",
  "compiler": {
    "name": "solc",
    "version": "0.8.11+commit.d7f03943.Emscripten.clang"
  },
  "schemaVersion": "3.4.16",
  "updatedAt": "2024-05-24T22:14:28.172Z",
  "devdoc": {
    "kind": "dev",
    "methods": {},
    "version": 1
  },
  "userdoc": {
    "kind": "user",
    "methods": {},
    "version": 1
  }
}