{
  "contractName": "Migrations",
  "abi": [
    {
      "anonymous": false,
      "inputs": [
        {
          "indexed": true,
          "internalType": "address",
          "name": "user",
          "type": "address"
        },
        {
          "indexed": false,
          "internalType": "uint256",
          "name": "amount",
          "type": "uint256"
        }
      ],
      "name": "Deposit",
      "type": "event"
    },
    {
      "anonymous": false,
      "inputs": [
        {
          "indexed": true,
          "internalType": "address",
          "name": "from",
          "type": "address"
        },
        {
          "indexed": true,
          "internalType": "address",
          "name": "to",
          "type": "address"
        },
        {
          "indexed": false,
          "internalType": "uint256",
          "name": "amount",
          "type": "uint256"
        }
      ],
      "name": "Payment",
      "type": "event"
    },
    {
      "anonymous": false,
      "inputs": [
        {
          "indexed": true,
          "internalType": "address",
          "name": "user",
          "type": "address"
        }
      ],
      "name": "UserRegistered",
      "type": "event"
    },
    {
      "anonymous": false,
      "inputs": [
        {
          "indexed": true,
          "internalType": "address",
          "name": "user",
          "type": "address"
        },
        {
          "indexed": false,
          "internalType": "uint256",
          "name": "amount",
          "type": "uint256"
        }
      ],
      "name": "Withdrawal",
      "type": "event"
    },
    {
      "inputs": [],
      "name": "registerUser",
      "outputs": [],
      "stateMutability": "nonpayable",
      "type": "function"
    },
    {
      "inputs": [],
      "name": "deposit",
      "outputs": [],
      "stateMutability": "payable",
      "type": "function",
      "payable": true
    },
    {
      "inputs": [
        {
          "internalType": "uint256",
          "name": "amount",
          "type": "uint256"
        }
      ],
      "name": "withdraw",
      "outputs": [],
      "stateMutability": "nonpayable",
      "type": "function"
    },
    {
      "inputs": [
        {
          "internalType": "address",
          "name": "from",
          "type": "address"
        },
        {
          "internalType": "address",
          "name": "to",
          "type": "address"
        },
        {
          "internalType": "uint256",
          "name": "amount",
          "type": "uint256"
        }
      ],
      "name": "sendPayment",
      "outputs": [],
      "stateMutability": "nonpayable",
      "type": "function"
    },
    {
      "inputs": [],
      "name": "getBalance",
      "outputs": [
        {
          "internalType": "uint256",
          "name": "",
          "type": "uint256"
        }
      ],
      "stateMutability": "view",
      "type": "function",
      "constant": true
    },
    {
      "inputs": [
        {
          "internalType": "address",
          "name": "user",
          "type": "address"
        }
      ],
      "name": "isRegistered",
      "outputs": [
        {
          "internalType": "bool",
          "name": "",
          "type": "bool"
        }
      ],
      "stateMutability": "view",
      "type": "function",
      "constant": true
    },
    {
      "inputs": [
        {
          "internalType": "address",
          "name": "user",
          "type": "address"
        }
      ],
      "name": "getTransactionCount",
      "outputs": [
        {
          "internalType": "uint256",
          "name": "",
          "type": "uint256"
        }
      ],
      "stateMutability": "view",
      "type": "function",
      "constant": true
    },
    {
      "inputs": [
        {
          "internalType": "address",
          "name": "user",
          "type": "address"
        },
        {
          "internalType": "uint256",
          "name": "index",
          "type": "uint256"
        }
      ],
      "name": "getTransaction",
      "outputs": [
        {
          "internalType": "address",
          "name": "",
          "type": "address"
        },
        {
          "internalType": "address",
          "name": "",
          "type": "address"
        },
        {
          "internalType": "uint256",
          "name": "",
          "type": "uint256"
        }
      ],
      "stateMutability": "view",
      "type": "function",
      "constant": true
    },
    {
      "inputs": [
        {
          "internalType": "address",
          "name": "user",
          "type": "address"
        }
      ],
      "name": "getAllTransactions",
      "outputs": [
        {
          "components": [
            {
              "internalType": "address",
              "name": "from",
              "type": "address"
            },
            {
              "internalType": "address",
              "name": "to",
              "type": "address"
            },
            {
              "internalType": "uint256",
              "name": "amount",
              "type": "uint256"
            }
          ],
          "internalType": "struct Migrations.Transaction[]",
          "name": "",
          "type": "tuple[]"
        }
      ],
      "stateMutability": "view",
      "type": "function",
      "constant": true
    },
    {
      "inputs": [
        {
          "internalType": "uint256",
          "name": "completed",
          "type": "uint256"
        }
      ],
      "name": "setCompleted",
      "outputs": [],
      "stateMutability": "nonpayable",
      "type": "function"
    }
  ],
  "bytecode": "0x608060405234801561001057600080fd5b50611f20806100206000396000f3fe6080604052600436106100915760003560e01c8063a43293b411610059578063a43293b414610167578063c3c5a547146101a6578063d0e30db0146101e3578063dab3b7aa146101ed578063fdacd5761461022a57610091565b806312065fe01461009657806323ca0cd2146100c15780632e1a7d4d146100fe578063395801e7146101275780634d3820eb14610150575b600080fd5b3480156100a257600080fd5b506100ab610253565b6040516100b8919061171b565b60405180910390f35b3480156100cd57600080fd5b506100e860048036038101906100e39190611799565b61032a565b6040516100f5919061171b565b60405180910390f35b34801561010a57600080fd5b50610125600480360381019061012091906117f2565b610375565b005b34801561013357600080fd5b5061014e6004803603810190610149919061181f565b610748565b005b34801561015c57600080fd5b50610165610e30565b005b34801561017357600080fd5b5061018e60048036038101906101899190611872565b610f5e565b60405161019d939291906118c1565b60405180910390f35b3480156101b257600080fd5b506101cd60048036038101906101c89190611799565b611118565b6040516101da9190611913565b60405180910390f35b6101eb611170565b005b3480156101f957600080fd5b50610214600480360381019061020f9190611799565b6114ba565b6040516102219190611a3d565b60405180910390f35b34801561023657600080fd5b50610251600480360381019061024c91906117f2565b6116b2565b005b60008060003373ffffffffffffffffffffffffffffffffffffffff1673ffffffffffffffffffffffffffffffffffffffff16815260200190815260200160002060010160009054906101000a900460ff166102e3576040517f08c379a00000000000000000000000000000000000000000000000000000000081526004016102da90611abc565b60405180910390fd5b6000803373ffffffffffffffffffffffffffffffffffffffff1673ffffffffffffffffffffffffffffffffffffffff16815260200190815260200160002060000154905090565b60008060008373ffffffffffffffffffffffffffffffffffffffff1673ffffffffffffffffffffffffffffffffffffffff168152602001908152602001600020600201549050919050565b6000803373ffffffffffffffffffffffffffffffffffffffff1673ffffffffffffffffffffffffffffffffffffffff16815260200190815260200160002060010160009054906101000a900460ff16610403576040517f08c379a00000000000000000000000000000000000000000000000000000000081526004016103fa90611abc565b60405180910390fd5b806000803373ffffffffffffffffffffffffffffffffffffffff1673ffffffffffffffffffffffffffffffffffffffff168152602001908152602001600020600001541015610487576040517f08c379a000000000000000000000000000000000000000000000000000000000815260040161047e90611b28565b60405180910390fd5b806000803373ffffffffffffffffffffffffffffffffffffffff1673ffffffffffffffffffffffffffffffffffffffff16815260200190815260200160002060000160008282546104d89190611b77565b925050819055503373ffffffffffffffffffffffffffffffffffffffff166108fc829081150290604051600060405180830381858888f19350505050158015610525573d6000803e3d6000fd5b5060008060003373ffffffffffffffffffffffffffffffffffffffff1673ffffffffffffffffffffffffffffffffffffffff16815260200190815260200160002060020154905060405180606001604052803373ffffffffffffffffffffffffffffffffffffffff168152602001600073ffffffffffffffffffffffffffffffffffffffff16815260200183815250600160003373ffffffffffffffffffffffffffffffffffffffff1673ffffffffffffffffffffffffffffffffffffffff168152602001908152602001600020600083815260200190815260200160002060008201518160000160006101000a81548173ffffffffffffffffffffffffffffffffffffffff021916908373ffffffffffffffffffffffffffffffffffffffff16021790555060208201518160010160006101000a81548173ffffffffffffffffffffffffffffffffffffffff021916908373ffffffffffffffffffffffffffffffffffffffff160217905550604082015181600201559050506000803373ffffffffffffffffffffffffffffffffffffffff1673ffffffffffffffffffffffffffffffffffffffff16815260200190815260200160002060020160008154809291906106f190611bab565b91905055503373ffffffffffffffffffffffffffffffffffffffff167f7fcf532c15f0a6db0bd6d0e038bea71d30d808c7d98cb3bf7268a95bf5081b658360405161073c919061171b565b60405180910390a25050565b6000803373ffffffffffffffffffffffffffffffffffffffff1673ffffffffffffffffffffffffffffffffffffffff16815260200190815260200160002060010160009054906101000a900460ff166107d6576040517f08c379a00000000000000000000000000000000000000000000000000000000081526004016107cd90611abc565b60405180910390fd5b6000808473ffffffffffffffffffffffffffffffffffffffff1673ffffffffffffffffffffffffffffffffffffffff16815260200190815260200160002060010160009054906101000a900460ff16610864576040517f08c379a000000000000000000000000000000000000000000000000000000000815260040161085b90611c40565b60405180910390fd5b6000808373ffffffffffffffffffffffffffffffffffffffff1673ffffffffffffffffffffffffffffffffffffffff16815260200190815260200160002060010160009054906101000a900460ff166108f2576040517f08c379a00000000000000000000000000000000000000000000000000000000081526004016108e990611cac565b60405180910390fd5b806000808573ffffffffffffffffffffffffffffffffffffffff1673ffffffffffffffffffffffffffffffffffffffff168152602001908152602001600020600001541015610976576040517f08c379a000000000000000000000000000000000000000000000000000000000815260040161096d90611b28565b60405180910390fd5b806000808573ffffffffffffffffffffffffffffffffffffffff1673ffffffffffffffffffffffffffffffffffffffff16815260200190815260200160002060000160008282546109c79190611b77565b92505081905550806000808473ffffffffffffffffffffffffffffffffffffffff1673ffffffffffffffffffffffffffffffffffffffff1681526020019081526020016000206000016000828254610a1f9190611ccc565b9250508190555060008060008573ffffffffffffffffffffffffffffffffffffffff1673ffffffffffffffffffffffffffffffffffffffff16815260200190815260200160002060020154905060405180606001604052808573ffffffffffffffffffffffffffffffffffffffff1681526020018473ffffffffffffffffffffffffffffffffffffffff16815260200183815250600160008673ffffffffffffffffffffffffffffffffffffffff1673ffffffffffffffffffffffffffffffffffffffff168152602001908152602001600020600083815260200190815260200160002060008201518160000160006101000a81548173ffffffffffffffffffffffffffffffffffffffff021916908373ffffffffffffffffffffffffffffffffffffffff16021790555060208201518160010160006101000a81548173ffffffffffffffffffffffffffffffffffffffff021916908373ffffffffffffffffffffffffffffffffffffffff160217905550604082015181600201559050506000808573ffffffffffffffffffffffffffffffffffffffff1673ffffffffffffffffffffffffffffffffffffffff1681526020019081526020016000206002016000815480929190610bf090611bab565b919050555060008060008573ffffffffffffffffffffffffffffffffffffffff1673ffffffffffffffffffffffffffffffffffffffff16815260200190815260200160002060020154905060405180606001604052808673ffffffffffffffffffffffffffffffffffffffff1681526020018573ffffffffffffffffffffffffffffffffffffffff16815260200184815250600160008673ffffffffffffffffffffffffffffffffffffffff1673ffffffffffffffffffffffffffffffffffffffff168152602001908152602001600020600083815260200190815260200160002060008201518160000160006101000a81548173ffffffffffffffffffffffffffffffffffffffff021916908373ffffffffffffffffffffffffffffffffffffffff16021790555060208201518160010160006101000a81548173ffffffffffffffffffffffffffffffffffffffff021916908373ffffffffffffffffffffffffffffffffffffffff160217905550604082015181600201559050506000808573ffffffffffffffffffffffffffffffffffffffff1673ffffffffffffffffffffffffffffffffffffffff1681526020019081526020016000206002016000815480929190610dbf90611bab565b91905055508373ffffffffffffffffffffffffffffffffffffffff168573ffffffffffffffffffffffffffffffffffffffff167f8ed7db30df47fbd87811a5e8a95a94838f0c0241263d9a1865d6a2a3e10516e285604051610e21919061171b565b60405180910390a35050505050565b6000803373ffffffffffffffffffffffffffffffffffffffff1673ffffffffffffffffffffffffffffffffffffffff16815260200190815260200160002060010160009054906101000a900460ff1615610ebf576040517f08c379a0000000000000000000000000000000000000000000000000000000008152600401610eb690611d6e565b60405180910390fd5b60016000803373ffffffffffffffffffffffffffffffffffffffff1673ffffffffffffffffffffffffffffffffffffffff16815260200190815260200160002060010160006101000a81548160ff0219169083151502179055503373ffffffffffffffffffffffffffffffffffffffff167f54db7a5cb4735e1aac1f53db512d3390390bb6637bd30ad4bf9fc98667d9b9b960405160405180910390a2565b60008060008060008673ffffffffffffffffffffffffffffffffffffffff1673ffffffffffffffffffffffffffffffffffffffff168152602001908152602001600020600201548410610fe6576040517f08c379a0000000000000000000000000000000000000000000000000000000008152600401610fdd90611dda565b60405180910390fd5b6000600160008773ffffffffffffffffffffffffffffffffffffffff1673ffffffffffffffffffffffffffffffffffffffff16815260200190815260200160002060008681526020019081526020016000206040518060600160405290816000820160009054906101000a900473ffffffffffffffffffffffffffffffffffffffff1673ffffffffffffffffffffffffffffffffffffffff1673ffffffffffffffffffffffffffffffffffffffff1681526020016001820160009054906101000a900473ffffffffffffffffffffffffffffffffffffffff1673ffffffffffffffffffffffffffffffffffffffff1673ffffffffffffffffffffffffffffffffffffffff1681526020016002820154815250509050806000015181602001518260400151935093509350509250925092565b60008060008373ffffffffffffffffffffffffffffffffffffffff1673ffffffffffffffffffffffffffffffffffffffff16815260200190815260200160002060010160009054906101000a900460ff169050919050565b6000803373ffffffffffffffffffffffffffffffffffffffff1673ffffffffffffffffffffffffffffffffffffffff16815260200190815260200160002060010160009054906101000a900460ff166111fe576040517f08c379a00000000000000000000000000000000000000000000000000000000081526004016111f590611abc565b60405180910390fd5b60003411611241576040517f08c379a000000000000000000000000000000000000000000000000000000000815260040161123890611e6c565b60405180910390fd5b346000803373ffffffffffffffffffffffffffffffffffffffff1673ffffffffffffffffffffffffffffffffffffffff16815260200190815260200160002060000160008282546112929190611ccc565b9250508190555060008060003373ffffffffffffffffffffffffffffffffffffffff1673ffffffffffffffffffffffffffffffffffffffff1681526020019081526020016000206002015490506040518060600160405280600073ffffffffffffffffffffffffffffffffffffffff1681526020013373ffffffffffffffffffffffffffffffffffffffff16815260200134815250600160003373ffffffffffffffffffffffffffffffffffffffff1673ffffffffffffffffffffffffffffffffffffffff168152602001908152602001600020600083815260200190815260200160002060008201518160000160006101000a81548173ffffffffffffffffffffffffffffffffffffffff021916908373ffffffffffffffffffffffffffffffffffffffff16021790555060208201518160010160006101000a81548173ffffffffffffffffffffffffffffffffffffffff021916908373ffffffffffffffffffffffffffffffffffffffff160217905550604082015181600201559050506000803373ffffffffffffffffffffffffffffffffffffffff1673ffffffffffffffffffffffffffffffffffffffff168152602001908152602001600020600201600081548092919061146490611bab565b91905055503373ffffffffffffffffffffffffffffffffffffffff167fe1fffcc4923d04b559f4d29a8bfc6cda04eb5b0d3c460751c2402c5c5cc9109c346040516114af919061171b565b60405180910390a250565b606060008060008473ffffffffffffffffffffffffffffffffffffffff1673ffffffffffffffffffffffffffffffffffffffff16815260200190815260200160002060020154905060008167ffffffffffffffff81111561151e5761151d611e8c565b5b60405190808252806020026020018201604052801561155757816020015b6115446116b5565b81526020019060019003908161153c5790505b50905060005b828110156116a757600160008673ffffffffffffffffffffffffffffffffffffffff1673ffffffffffffffffffffffffffffffffffffffff16815260200190815260200160002060008281526020019081526020016000206040518060600160405290816000820160009054906101000a900473ffffffffffffffffffffffffffffffffffffffff1673ffffffffffffffffffffffffffffffffffffffff1673ffffffffffffffffffffffffffffffffffffffff1681526020016001820160009054906101000a900473ffffffffffffffffffffffffffffffffffffffff1673ffffffffffffffffffffffffffffffffffffffff1673ffffffffffffffffffffffffffffffffffffffff16815260200160028201548152505082828151811061168957611688611ebb565b5b6020026020010181905250808061169f90611bab565b91505061155d565b508092505050919050565b50565b6040518060600160405280600073ffffffffffffffffffffffffffffffffffffffff168152602001600073ffffffffffffffffffffffffffffffffffffffff168152602001600081525090565b6000819050919050565b61171581611702565b82525050565b6000602082019050611730600083018461170c565b92915050565b600080fd5b600073ffffffffffffffffffffffffffffffffffffffff82169050919050565b60006117668261173b565b9050919050565b6117768161175b565b811461178157600080fd5b50565b6000813590506117938161176d565b92915050565b6000602082840312156117af576117ae611736565b5b60006117bd84828501611784565b91505092915050565b6117cf81611702565b81146117da57600080fd5b50565b6000813590506117ec816117c6565b92915050565b60006020828403121561180857611807611736565b5b6000611816848285016117dd565b91505092915050565b60008060006060848603121561183857611837611736565b5b600061184686828701611784565b935050602061185786828701611784565b9250506040611868868287016117dd565b9150509250925092565b6000806040838503121561188957611888611736565b5b600061189785828601611784565b92505060206118a8858286016117dd565b9150509250929050565b6118bb8161175b565b82525050565b60006060820190506118d660008301866118b2565b6118e360208301856118b2565b6118f0604083018461170c565b949350505050565b60008115159050919050565b61190d816118f8565b82525050565b60006020820190506119286000830184611904565b92915050565b600081519050919050565b600082825260208201905092915050565b6000819050602082019050919050565b6119638161175b565b82525050565b61197281611702565b82525050565b60608201600082015161198e600085018261195a565b5060208201516119a1602085018261195a565b5060408201516119b46040850182611969565b50505050565b60006119c68383611978565b60608301905092915050565b6000602082019050919050565b60006119ea8261192e565b6119f48185611939565b93506119ff8361194a565b8060005b83811015611a30578151611a1788826119ba565b9750611a22836119d2565b925050600181019050611a03565b5085935050505092915050565b60006020820190508181036000830152611a5781846119df565b905092915050565b600082825260208201905092915050565b7f55736572206e6f74207265676973746572656400000000000000000000000000600082015250565b6000611aa6601383611a5f565b9150611ab182611a70565b602082019050919050565b60006020820190508181036000830152611ad581611a99565b9050919050565b7f496e73756666696369656e742062616c616e6365000000000000000000000000600082015250565b6000611b12601483611a5f565b9150611b1d82611adc565b602082019050919050565b60006020820190508181036000830152611b4181611b05565b9050919050565b7f4e487b7100000000000000000000000000000000000000000000000000000000600052601160045260246000fd5b6000611b8282611702565b9150611b8d83611702565b925082821015611ba057611b9f611b48565b5b828203905092915050565b6000611bb682611702565b91507fffffffffffffffffffffffffffffffffffffffffffffffffffffffffffffffff821415611be957611be8611b48565b5b600182019050919050565b7f53656e646572206e6f7420726567697374657265640000000000000000000000600082015250565b6000611c2a601583611a5f565b9150611c3582611bf4565b602082019050919050565b60006020820190508181036000830152611c5981611c1d565b9050919050565b7f526563697069656e74206e6f7420726567697374657265640000000000000000600082015250565b6000611c96601883611a5f565b9150611ca182611c60565b602082019050919050565b60006020820190508181036000830152611cc581611c89565b9050919050565b6000611cd782611702565b9150611ce283611702565b9250827fffffffffffffffffffffffffffffffffffffffffffffffffffffffffffffffff03821115611d1757611d16611b48565b5b828201905092915050565b7f5573657220616c72656164792072656769737465726564000000000000000000600082015250565b6000611d58601783611a5f565b9150611d6382611d22565b602082019050919050565b60006020820190508181036000830152611d8781611d4b565b9050919050565b7f496e76616c696420696e64657800000000000000000000000000000000000000600082015250565b6000611dc4600d83611a5f565b9150611dcf82611d8e565b602082019050919050565b60006020820190508181036000830152611df381611db7565b9050919050565b7f4465706f73697420616d6f756e74206d7573742062652067726561746572207460008201527f68616e207a65726f000000000000000000000000000000000000000000000000602082015250565b6000611e56602883611a5f565b9150611e6182611dfa565b604082019050919050565b60006020820190508181036000830152611e8581611e49565b9050919050565b7f4e487b7100000000000000000000000000000000000000000000000000000000600052604160045260246000fd5b7f4e487b7100000000000000000000000000000000000000000000000000000000600052603260045260246000fdfea264697066735822122080029eb3ca937f0cce452502e7b05a86d23ace7ecdb3ce20db2bdef5c23c589764736f6c634300080b0033",
  "immutableReferences": {},
  "source": "// SPDX-License-Identifier: MIT\r\npragma solidity >=0.4.22 <0.9.0;\r\n\r\ncontract Migrations {\r\n    struct Transaction {\r\n        address from;\r\n        address to;\r\n        uint256 amount;\r\n    }\r\n\r\n    struct User {\r\n        uint256 balance;\r\n        bool exists;\r\n        uint256 transactionCount; // Contador de transaes do usurio\r\n    }\r\n\r\n    mapping(address => User) private users;\r\n    mapping(address => mapping(uint256 => Transaction)) private userTransactions;\r\n\r\n    event UserRegistered(address indexed user);\r\n    event Deposit(address indexed user, uint256 amount);\r\n    event Withdrawal(address indexed user, uint256 amount);\r\n    event Payment(address indexed from, address indexed to, uint256 amount);\r\n\r\n    modifier onlyRegistered() {\r\n        require(users[msg.sender].exists, \"User not registered\");\r\n        _;\r\n    }\r\n\r\n    function registerUser() external {\r\n        require(!users[msg.sender].exists, \"User already registered\");\r\n        users[msg.sender].exists = true;\r\n        emit UserRegistered(msg.sender);\r\n    }\r\n\r\n    function deposit() external payable onlyRegistered {\r\n        require(msg.value > 0, \"Deposit amount must be greater than zero\");\r\n        users[msg.sender].balance += msg.value;\r\n\r\n        uint256 txCount = users[msg.sender].transactionCount;\r\n        userTransactions[msg.sender][txCount] = Transaction({\r\n            from: address(0),\r\n            to: msg.sender,\r\n            amount: msg.value\r\n        });\r\n        users[msg.sender].transactionCount++;\r\n\r\n        emit Deposit(msg.sender, msg.value);\r\n    }\r\n\r\n    function withdraw(uint256 amount) external onlyRegistered {\r\n        require(users[msg.sender].balance >= amount, \"Insufficient balance\");\r\n        users[msg.sender].balance -= amount;\r\n        payable(msg.sender).transfer(amount);\r\n\r\n        uint256 txCount = users[msg.sender].transactionCount;\r\n        userTransactions[msg.sender][txCount] = Transaction({\r\n            from: msg.sender,\r\n            to: address(0),\r\n            amount: amount\r\n        });\r\n        users[msg.sender].transactionCount++;\r\n\r\n        emit Withdrawal(msg.sender, amount);\r\n    }\r\n\r\n    function sendPayment(address from, address to, uint256 amount) external onlyRegistered {\r\n        require(users[from].exists, \"Sender not registered\");\r\n        require(users[to].exists, \"Recipient not registered\");\r\n        require(users[from].balance >= amount, \"Insufficient balance\");\r\n\r\n        users[from].balance -= amount;\r\n        users[to].balance += amount;\r\n\r\n        uint256 txCountFrom = users[from].transactionCount;\r\n        userTransactions[from][txCountFrom] = Transaction({\r\n            from: from,\r\n            to: to,\r\n            amount: amount\r\n        });\r\n        users[from].transactionCount++;\r\n\r\n        uint256 txCountTo = users[to].transactionCount;\r\n        userTransactions[to][txCountTo] = Transaction({\r\n            from: from,\r\n            to: to,\r\n            amount: amount\r\n        });\r\n        users[to].transactionCount++;\r\n\r\n        emit Payment(from, to, amount);\r\n    }\r\n\r\n    function getBalance() external view onlyRegistered returns (uint256) {\r\n        return users[msg.sender].balance;\r\n    }\r\n\r\n    function isRegistered(address user) external view returns (bool) {\r\n        return users[user].exists;\r\n    }\r\n\r\n    function getTransactionCount(address user) external view returns (uint256) {\r\n        return users[user].transactionCount;\r\n    }\r\n\r\n    function getTransaction(address user, uint256 index) external view returns (address, address, uint256) {\r\n        require(index < users[user].transactionCount, \"Invalid index\");\r\n        Transaction memory transaction = userTransactions[user][index];\r\n        return (transaction.from, transaction.to, transaction.amount);\r\n    }\r\n\r\n    function getAllTransactions(address user) external view returns (Transaction[] memory) {\r\n        uint256 transactionCount = users[user].transactionCount;\r\n        Transaction[] memory transactions = new Transaction[](transactionCount);\r\n        for (uint256 i = 0; i < transactionCount; i++) {\r\n            transactions[i] = userTransactions[user][i];\r\n        }\r\n        return transactions;\r\n    }\r\n\r\n    function setCompleted(uint completed) external {\r\n        // Implemente a lgica necessria para marcar a migrao como concluda aqui\r\n    }\r\n}\r\n",
  "sourcePath": "C:\\Users\\Lekaticia\\Documents\\VSCode_projs\\GanachePIX\\contracts\\Migrations.sol",
  "compiler": {
    "name": "solc",
    "version": "0.8.11+commit.d7f03943.Emscripten.clang"
  },
  "schemaVersion": "3.4.16",
  "updatedAt": "2024-05-26T17:55:20.556Z",
  "networkType": "ethereum",
  "devdoc": {
    "kind": "dev",
    "methods": {},
    "version": 1
  },
  "userdoc": {
    "kind": "user",
    "methods": {},
    "version": 1
  }
}