{
  "contractName": "Migrations",
  "abi": [
    {
      "anonymous": false,
      "inputs": [
        {
          "indexed": true,
          "internalType": "address",
          "name": "user",
          "type": "address"
        },
        {
          "indexed": false,
          "internalType": "uint256",
          "name": "amount",
          "type": "uint256"
        }
      ],
      "name": "Deposit",
      "type": "event"
    },
    {
      "anonymous": false,
      "inputs": [
        {
          "indexed": true,
          "internalType": "address",
          "name": "from",
          "type": "address"
        },
        {
          "indexed": true,
          "internalType": "address",
          "name": "to",
          "type": "address"
        },
        {
          "indexed": false,
          "internalType": "uint256",
          "name": "amount",
          "type": "uint256"
        }
      ],
      "name": "Payment",
      "type": "event"
    },
    {
      "anonymous": false,
      "inputs": [
        {
          "indexed": true,
          "internalType": "address",
          "name": "user",
          "type": "address"
        }
      ],
      "name": "UserRegistered",
      "type": "event"
    },
    {
      "anonymous": false,
      "inputs": [
        {
          "indexed": true,
          "internalType": "address",
          "name": "user",
          "type": "address"
        },
        {
          "indexed": false,
          "internalType": "uint256",
          "name": "amount",
          "type": "uint256"
        }
      ],
      "name": "Withdrawal",
      "type": "event"
    },
    {
      "inputs": [],
      "name": "registerUser",
      "outputs": [],
      "stateMutability": "nonpayable",
      "type": "function"
    },
    {
      "inputs": [],
      "name": "deposit",
      "outputs": [],
      "stateMutability": "payable",
      "type": "function",
      "payable": true
    },
    {
      "inputs": [
        {
          "internalType": "uint256",
          "name": "amount",
          "type": "uint256"
        }
      ],
      "name": "withdraw",
      "outputs": [],
      "stateMutability": "nonpayable",
      "type": "function"
    },
    {
      "inputs": [
        {
          "internalType": "address",
          "name": "from",
          "type": "address"
        },
        {
          "internalType": "address",
          "name": "to",
          "type": "address"
        },
        {
          "internalType": "uint256",
          "name": "amount",
          "type": "uint256"
        }
      ],
      "name": "sendPayment",
      "outputs": [],
      "stateMutability": "nonpayable",
      "type": "function"
    },
    {
      "inputs": [],
      "name": "getBalance",
      "outputs": [
        {
          "internalType": "uint256",
          "name": "",
          "type": "uint256"
        }
      ],
      "stateMutability": "view",
      "type": "function",
      "constant": true
    },
    {
      "inputs": [
        {
          "internalType": "address",
          "name": "user",
          "type": "address"
        }
      ],
      "name": "isRegistered",
      "outputs": [
        {
          "internalType": "bool",
          "name": "",
          "type": "bool"
        }
      ],
      "stateMutability": "view",
      "type": "function",
      "constant": true
    },
    {
      "inputs": [
        {
          "internalType": "address",
          "name": "user",
          "type": "address"
        }
      ],
      "name": "getTransactionCount",
      "outputs": [
        {
          "internalType": "uint256",
          "name": "",
          "type": "uint256"
        }
      ],
      "stateMutability": "view",
      "type": "function",
      "constant": true
    },
    {
      "inputs": [
        {
          "internalType": "address",
          "name": "user",
          "type": "address"
        },
        {
          "internalType": "uint256",
          "name": "index",
          "type": "uint256"
        }
      ],
      "name": "getTransaction",
      "outputs": [
        {
          "internalType": "address",
          "name": "",
          "type": "address"
        },
        {
          "internalType": "address",
          "name": "",
          "type": "address"
        },
        {
          "internalType": "uint256",
          "name": "",
          "type": "uint256"
        }
      ],
      "stateMutability": "view",
      "type": "function",
      "constant": true
    },
    {
      "inputs": [
        {
          "internalType": "uint256",
          "name": "completed",
          "type": "uint256"
        }
      ],
      "name": "setCompleted",
      "outputs": [],
      "stateMutability": "nonpayable",
      "type": "function"
    }
  ],
  "bytecode": "0x608060405234801561001057600080fd5b50611934806100206000396000f3fe6080604052600436106100865760003560e01c80634d3820eb116100595780634d3820eb14610145578063a43293b41461015c578063c3c5a5471461019b578063d0e30db0146101d8578063fdacd576146101e257610086565b806312065fe01461008b57806323ca0cd2146100b65780632e1a7d4d146100f3578063395801e71461011c575b600080fd5b34801561009757600080fd5b506100a061020b565b6040516100ad91906112be565b60405180910390f35b3480156100c257600080fd5b506100dd60048036038101906100d8919061133c565b6102e2565b6040516100ea91906112be565b60405180910390f35b3480156100ff57600080fd5b5061011a60048036038101906101159190611395565b61032d565b005b34801561012857600080fd5b50610143600480360381019061013e91906113c2565b610700565b005b34801561015157600080fd5b5061015a610c18565b005b34801561016857600080fd5b50610183600480360381019061017e9190611415565b610d46565b60405161019293929190611464565b60405180910390f35b3480156101a757600080fd5b506101c260048036038101906101bd919061133c565b610f00565b6040516101cf91906114b6565b60405180910390f35b6101e0610f58565b005b3480156101ee57600080fd5b5061020960048036038101906102049190611395565b6112a2565b005b60008060003373ffffffffffffffffffffffffffffffffffffffff1673ffffffffffffffffffffffffffffffffffffffff16815260200190815260200160002060010160009054906101000a900460ff1661029b576040517f08c379a00000000000000000000000000000000000000000000000000000000081526004016102929061152e565b60405180910390fd5b6000803373ffffffffffffffffffffffffffffffffffffffff1673ffffffffffffffffffffffffffffffffffffffff16815260200190815260200160002060000154905090565b60008060008373ffffffffffffffffffffffffffffffffffffffff1673ffffffffffffffffffffffffffffffffffffffff168152602001908152602001600020600201549050919050565b6000803373ffffffffffffffffffffffffffffffffffffffff1673ffffffffffffffffffffffffffffffffffffffff16815260200190815260200160002060010160009054906101000a900460ff166103bb576040517f08c379a00000000000000000000000000000000000000000000000000000000081526004016103b29061152e565b60405180910390fd5b806000803373ffffffffffffffffffffffffffffffffffffffff1673ffffffffffffffffffffffffffffffffffffffff16815260200190815260200160002060000154101561043f576040517f08c379a00000000000000000000000000000000000000000000000000000000081526004016104369061159a565b60405180910390fd5b806000803373ffffffffffffffffffffffffffffffffffffffff1673ffffffffffffffffffffffffffffffffffffffff168152602001908152602001600020600001600082825461049091906115e9565b925050819055503373ffffffffffffffffffffffffffffffffffffffff166108fc829081150290604051600060405180830381858888f193505050501580156104dd573d6000803e3d6000fd5b5060008060003373ffffffffffffffffffffffffffffffffffffffff1673ffffffffffffffffffffffffffffffffffffffff16815260200190815260200160002060020154905060405180606001604052803373ffffffffffffffffffffffffffffffffffffffff168152602001600073ffffffffffffffffffffffffffffffffffffffff16815260200183815250600160003373ffffffffffffffffffffffffffffffffffffffff1673ffffffffffffffffffffffffffffffffffffffff168152602001908152602001600020600083815260200190815260200160002060008201518160000160006101000a81548173ffffffffffffffffffffffffffffffffffffffff021916908373ffffffffffffffffffffffffffffffffffffffff16021790555060208201518160010160006101000a81548173ffffffffffffffffffffffffffffffffffffffff021916908373ffffffffffffffffffffffffffffffffffffffff160217905550604082015181600201559050506000803373ffffffffffffffffffffffffffffffffffffffff1673ffffffffffffffffffffffffffffffffffffffff16815260200190815260200160002060020160008154809291906106a99061161d565b91905055503373ffffffffffffffffffffffffffffffffffffffff167f7fcf532c15f0a6db0bd6d0e038bea71d30d808c7d98cb3bf7268a95bf5081b65836040516106f491906112be565b60405180910390a25050565b6000803373ffffffffffffffffffffffffffffffffffffffff1673ffffffffffffffffffffffffffffffffffffffff16815260200190815260200160002060010160009054906101000a900460ff1661078e576040517f08c379a00000000000000000000000000000000000000000000000000000000081526004016107859061152e565b60405180910390fd5b6000808473ffffffffffffffffffffffffffffffffffffffff1673ffffffffffffffffffffffffffffffffffffffff16815260200190815260200160002060010160009054906101000a900460ff1661081c576040517f08c379a0000000000000000000000000000000000000000000000000000000008152600401610813906116b2565b60405180910390fd5b6000808373ffffffffffffffffffffffffffffffffffffffff1673ffffffffffffffffffffffffffffffffffffffff16815260200190815260200160002060010160009054906101000a900460ff166108aa576040517f08c379a00000000000000000000000000000000000000000000000000000000081526004016108a19061171e565b60405180910390fd5b806000808573ffffffffffffffffffffffffffffffffffffffff1673ffffffffffffffffffffffffffffffffffffffff16815260200190815260200160002060000154101561092e576040517f08c379a00000000000000000000000000000000000000000000000000000000081526004016109259061159a565b60405180910390fd5b806000808573ffffffffffffffffffffffffffffffffffffffff1673ffffffffffffffffffffffffffffffffffffffff168152602001908152602001600020600001600082825461097f91906115e9565b92505081905550806000808473ffffffffffffffffffffffffffffffffffffffff1673ffffffffffffffffffffffffffffffffffffffff16815260200190815260200160002060000160008282546109d7919061173e565b9250508190555060008060008573ffffffffffffffffffffffffffffffffffffffff1673ffffffffffffffffffffffffffffffffffffffff16815260200190815260200160002060020154905060405180606001604052808573ffffffffffffffffffffffffffffffffffffffff1681526020018473ffffffffffffffffffffffffffffffffffffffff16815260200183815250600160008673ffffffffffffffffffffffffffffffffffffffff1673ffffffffffffffffffffffffffffffffffffffff168152602001908152602001600020600083815260200190815260200160002060008201518160000160006101000a81548173ffffffffffffffffffffffffffffffffffffffff021916908373ffffffffffffffffffffffffffffffffffffffff16021790555060208201518160010160006101000a81548173ffffffffffffffffffffffffffffffffffffffff021916908373ffffffffffffffffffffffffffffffffffffffff160217905550604082015181600201559050506000808573ffffffffffffffffffffffffffffffffffffffff1673ffffffffffffffffffffffffffffffffffffffff1681526020019081526020016000206002016000815480929190610ba89061161d565b91905055508273ffffffffffffffffffffffffffffffffffffffff168473ffffffffffffffffffffffffffffffffffffffff167f8ed7db30df47fbd87811a5e8a95a94838f0c0241263d9a1865d6a2a3e10516e284604051610c0a91906112be565b60405180910390a350505050565b6000803373ffffffffffffffffffffffffffffffffffffffff1673ffffffffffffffffffffffffffffffffffffffff16815260200190815260200160002060010160009054906101000a900460ff1615610ca7576040517f08c379a0000000000000000000000000000000000000000000000000000000008152600401610c9e906117e0565b60405180910390fd5b60016000803373ffffffffffffffffffffffffffffffffffffffff1673ffffffffffffffffffffffffffffffffffffffff16815260200190815260200160002060010160006101000a81548160ff0219169083151502179055503373ffffffffffffffffffffffffffffffffffffffff167f54db7a5cb4735e1aac1f53db512d3390390bb6637bd30ad4bf9fc98667d9b9b960405160405180910390a2565b60008060008060008673ffffffffffffffffffffffffffffffffffffffff1673ffffffffffffffffffffffffffffffffffffffff168152602001908152602001600020600201548410610dce576040517f08c379a0000000000000000000000000000000000000000000000000000000008152600401610dc59061184c565b60405180910390fd5b6000600160008773ffffffffffffffffffffffffffffffffffffffff1673ffffffffffffffffffffffffffffffffffffffff16815260200190815260200160002060008681526020019081526020016000206040518060600160405290816000820160009054906101000a900473ffffffffffffffffffffffffffffffffffffffff1673ffffffffffffffffffffffffffffffffffffffff1673ffffffffffffffffffffffffffffffffffffffff1681526020016001820160009054906101000a900473ffffffffffffffffffffffffffffffffffffffff1673ffffffffffffffffffffffffffffffffffffffff1673ffffffffffffffffffffffffffffffffffffffff1681526020016002820154815250509050806000015181602001518260400151935093509350509250925092565b60008060008373ffffffffffffffffffffffffffffffffffffffff1673ffffffffffffffffffffffffffffffffffffffff16815260200190815260200160002060010160009054906101000a900460ff169050919050565b6000803373ffffffffffffffffffffffffffffffffffffffff1673ffffffffffffffffffffffffffffffffffffffff16815260200190815260200160002060010160009054906101000a900460ff16610fe6576040517f08c379a0000000000000000000000000000000000000000000000000000000008152600401610fdd9061152e565b60405180910390fd5b60003411611029576040517f08c379a0000000000000000000000000000000000000000000000000000000008152600401611020906118de565b60405180910390fd5b346000803373ffffffffffffffffffffffffffffffffffffffff1673ffffffffffffffffffffffffffffffffffffffff168152602001908152602001600020600001600082825461107a919061173e565b9250508190555060008060003373ffffffffffffffffffffffffffffffffffffffff1673ffffffffffffffffffffffffffffffffffffffff1681526020019081526020016000206002015490506040518060600160405280600073ffffffffffffffffffffffffffffffffffffffff1681526020013373ffffffffffffffffffffffffffffffffffffffff16815260200134815250600160003373ffffffffffffffffffffffffffffffffffffffff1673ffffffffffffffffffffffffffffffffffffffff168152602001908152602001600020600083815260200190815260200160002060008201518160000160006101000a81548173ffffffffffffffffffffffffffffffffffffffff021916908373ffffffffffffffffffffffffffffffffffffffff16021790555060208201518160010160006101000a81548173ffffffffffffffffffffffffffffffffffffffff021916908373ffffffffffffffffffffffffffffffffffffffff160217905550604082015181600201559050506000803373ffffffffffffffffffffffffffffffffffffffff1673ffffffffffffffffffffffffffffffffffffffff168152602001908152602001600020600201600081548092919061124c9061161d565b91905055503373ffffffffffffffffffffffffffffffffffffffff167fe1fffcc4923d04b559f4d29a8bfc6cda04eb5b0d3c460751c2402c5c5cc9109c3460405161129791906112be565b60405180910390a250565b50565b6000819050919050565b6112b8816112a5565b82525050565b60006020820190506112d360008301846112af565b92915050565b600080fd5b600073ffffffffffffffffffffffffffffffffffffffff82169050919050565b6000611309826112de565b9050919050565b611319816112fe565b811461132457600080fd5b50565b60008135905061133681611310565b92915050565b600060208284031215611352576113516112d9565b5b600061136084828501611327565b91505092915050565b611372816112a5565b811461137d57600080fd5b50565b60008135905061138f81611369565b92915050565b6000602082840312156113ab576113aa6112d9565b5b60006113b984828501611380565b91505092915050565b6000806000606084860312156113db576113da6112d9565b5b60006113e986828701611327565b93505060206113fa86828701611327565b925050604061140b86828701611380565b9150509250925092565b6000806040838503121561142c5761142b6112d9565b5b600061143a85828601611327565b925050602061144b85828601611380565b9150509250929050565b61145e816112fe565b82525050565b60006060820190506114796000830186611455565b6114866020830185611455565b61149360408301846112af565b949350505050565b60008115159050919050565b6114b08161149b565b82525050565b60006020820190506114cb60008301846114a7565b92915050565b600082825260208201905092915050565b7f55736572206e6f74207265676973746572656400000000000000000000000000600082015250565b60006115186013836114d1565b9150611523826114e2565b602082019050919050565b600060208201905081810360008301526115478161150b565b9050919050565b7f496e73756666696369656e742062616c616e6365000000000000000000000000600082015250565b60006115846014836114d1565b915061158f8261154e565b602082019050919050565b600060208201905081810360008301526115b381611577565b9050919050565b7f4e487b7100000000000000000000000000000000000000000000000000000000600052601160045260246000fd5b60006115f4826112a5565b91506115ff836112a5565b925082821015611612576116116115ba565b5b828203905092915050565b6000611628826112a5565b91507fffffffffffffffffffffffffffffffffffffffffffffffffffffffffffffffff82141561165b5761165a6115ba565b5b600182019050919050565b7f53656e646572206e6f7420726567697374657265640000000000000000000000600082015250565b600061169c6015836114d1565b91506116a782611666565b602082019050919050565b600060208201905081810360008301526116cb8161168f565b9050919050565b7f526563697069656e74206e6f7420726567697374657265640000000000000000600082015250565b60006117086018836114d1565b9150611713826116d2565b602082019050919050565b60006020820190508181036000830152611737816116fb565b9050919050565b6000611749826112a5565b9150611754836112a5565b9250827fffffffffffffffffffffffffffffffffffffffffffffffffffffffffffffffff03821115611789576117886115ba565b5b828201905092915050565b7f5573657220616c72656164792072656769737465726564000000000000000000600082015250565b60006117ca6017836114d1565b91506117d582611794565b602082019050919050565b600060208201905081810360008301526117f9816117bd565b9050919050565b7f496e76616c696420696e64657800000000000000000000000000000000000000600082015250565b6000611836600d836114d1565b915061184182611800565b602082019050919050565b6000602082019050818103600083015261186581611829565b9050919050565b7f4465706f73697420616d6f756e74206d7573742062652067726561746572207460008201527f68616e207a65726f000000000000000000000000000000000000000000000000602082015250565b60006118c86028836114d1565b91506118d38261186c565b604082019050919050565b600060208201905081810360008301526118f7816118bb565b905091905056fea2646970667358221220db740f99c2a17fd5966f8f5c21344f42bb53a62f1a9cad99b2a38b443aaaf82964736f6c634300080b0033",
  "immutableReferences": {},
  "source": "// SPDX-License-Identifier: MIT\r\npragma solidity >=0.4.22 <0.9.0;\r\ncontract Migrations {\r\n    struct Transaction {\r\n        address from;\r\n        address to;\r\n        uint256 amount;\r\n    }\r\n\r\n    struct User {\r\n        uint256 balance;\r\n        bool exists;\r\n        uint256 transactionCount; // Contador de transaes do usurio\r\n    }\r\n\r\n    mapping(address => User) private users;\r\n    mapping(address => mapping(uint256 => Transaction)) private userTransactions;\r\n\r\n    event UserRegistered(address indexed user);\r\n    event Deposit(address indexed user, uint256 amount);\r\n    event Withdrawal(address indexed user, uint256 amount);\r\n    event Payment(address indexed from, address indexed to, uint256 amount);\r\n\r\n    modifier onlyRegistered() {\r\n        require(users[msg.sender].exists, \"User not registered\");\r\n        _;\r\n    }\r\n\r\n    function registerUser() external {\r\n        require(!users[msg.sender].exists, \"User already registered\");\r\n        users[msg.sender].exists = true;\r\n        emit UserRegistered(msg.sender);\r\n    }\r\n\r\n    function deposit() external payable onlyRegistered {\r\n        require(msg.value > 0, \"Deposit amount must be greater than zero\");\r\n        users[msg.sender].balance += msg.value;\r\n\r\n        // Registra a transao no extrato do usurio\r\n        uint256 txCount = users[msg.sender].transactionCount;\r\n        userTransactions[msg.sender][txCount] = Transaction({\r\n            from: address(0), // Deposito no possui \"from\"\r\n            to: msg.sender,\r\n            amount: msg.value\r\n        });\r\n        users[msg.sender].transactionCount++;\r\n\r\n        emit Deposit(msg.sender, msg.value);\r\n    }\r\n\r\n    function withdraw(uint256 amount) external onlyRegistered {\r\n        require(users[msg.sender].balance >= amount, \"Insufficient balance\");\r\n        users[msg.sender].balance -= amount;\r\n        payable(msg.sender).transfer(amount);\r\n\r\n        // Registra a transao no extrato do usurio\r\n        uint256 txCount = users[msg.sender].transactionCount;\r\n        userTransactions[msg.sender][txCount] = Transaction({\r\n            from: msg.sender,\r\n            to: address(0), // Saque no possui \"to\"\r\n            amount: amount\r\n        });\r\n        users[msg.sender].transactionCount++;\r\n\r\n        emit Withdrawal(msg.sender, amount);\r\n    }\r\n\r\n    function sendPayment(address from, address to, uint256 amount) external onlyRegistered {\r\n        require(users[from].exists, \"Sender not registered\");\r\n        require(users[to].exists, \"Recipient not registered\");\r\n        require(users[from].balance >= amount, \"Insufficient balance\");\r\n\r\n        // Transfere o valor\r\n        users[from].balance -= amount;\r\n        users[to].balance += amount;\r\n\r\n        // Registra a transao no extrato do remetente\r\n        uint256 txCount = users[from].transactionCount;\r\n        userTransactions[from][txCount] = Transaction({\r\n            from: from,\r\n            to: to,\r\n            amount: amount\r\n        });\r\n        users[from].transactionCount++;\r\n\r\n        emit Payment(from, to, amount);\r\n    }\r\n\r\n    function getBalance() external view onlyRegistered returns (uint256) {\r\n        return users[msg.sender].balance;\r\n    }\r\n\r\n    function isRegistered(address user) external view returns (bool) {\r\n        return users[user].exists;\r\n    }\r\n\r\n    function getTransactionCount(address user) external view returns (uint256) {\r\n        return users[user].transactionCount;\r\n    }\r\n\r\n    function getTransaction(address user, uint256 index) external view returns (address, address, uint256) {\r\n        require(index < users[user].transactionCount, \"Invalid index\");\r\n        Transaction memory transaction = userTransactions[user][index];\r\n        return (transaction.from, transaction.to, transaction.amount);\r\n    }\r\n\r\n    function setCompleted(uint completed) external {\r\n        // Implemente a lgica necessria para marcar a migrao como concluda aqui\r\n    }\r\n}\r\n",
  "sourcePath": "C:\\Users\\Lekaticia\\Documents\\VSCode_projs\\GanachePIX\\contracts\\Migrations.sol",
  "compiler": {
    "name": "solc",
    "version": "0.8.11+commit.d7f03943.Emscripten.clang"
  },
  "schemaVersion": "3.4.16",
  "updatedAt": "2024-05-26T01:48:02.406Z",
  "networkType": "ethereum",
  "devdoc": {
    "kind": "dev",
    "methods": {},
    "version": 1
  },
  "userdoc": {
    "kind": "user",
    "methods": {},
    "version": 1
  }
}